{
  "_format": "hh-sol-artifact-1",
  "contractName": "FunctionModifier",
  "sourceName": "contracts/FunctionModifier.sol",
  "abi": [
    {
      "inputs": [],
      "stateMutability": "nonpayable",
      "type": "constructor"
    },
    {
      "inputs": [
        {
          "internalType": "address",
          "name": "_newOwner",
          "type": "address"
        }
      ],
      "name": "changeOwner",
      "outputs": [],
      "stateMutability": "nonpayable",
      "type": "function"
    },
    {
      "inputs": [
        {
          "internalType": "uint256",
          "name": "i",
          "type": "uint256"
        }
      ],
      "name": "decrement",
      "outputs": [],
      "stateMutability": "nonpayable",
      "type": "function"
    },
    {
      "inputs": [],
      "name": "locked",
      "outputs": [
        {
          "internalType": "bool",
          "name": "",
          "type": "bool"
        }
      ],
      "stateMutability": "view",
      "type": "function"
    },
    {
      "inputs": [],
      "name": "owner",
      "outputs": [
        {
          "internalType": "address",
          "name": "",
          "type": "address"
        }
      ],
      "stateMutability": "view",
      "type": "function"
    },
    {
      "inputs": [],
      "name": "x",
      "outputs": [
        {
          "internalType": "uint256",
          "name": "",
          "type": "uint256"
        }
      ],
      "stateMutability": "view",
      "type": "function"
    }
  ],
  "bytecode": "0x6080604052600a60015534801561001557600080fd5b50336000806101000a81548173ffffffffffffffffffffffffffffffffffffffff021916908373ffffffffffffffffffffffffffffffffffffffff16021790555061068d806100656000396000f3fe608060405234801561001057600080fd5b50600436106100575760003560e01c80630c55699c1461005c5780633a9ebefd1461007a5780638da5cb5b14610096578063a6f9dae1146100b4578063cf309012146100d0575b600080fd5b6100646100ee565b60405161007191906104d7565b60405180910390f35b610094600480360381019061008f9190610382565b6100f4565b005b61009e6101b5565b6040516100ab9190610441565b60405180910390f35b6100ce60048036038101906100c99190610359565b6101d9565b005b6100d861031c565b6040516100e5919061045c565b60405180910390f35b60015481565b600260009054906101000a900460ff1615610144576040517f08c379a000000000000000000000000000000000000000000000000000000000815260040161013b90610477565b60405180910390fd5b6001600260006101000a81548160ff02191690831515021790555080600160008282546101719190610503565b925050819055506001811115610197576101966001826101919190610503565b6100f4565b5b6000600260006101000a81548160ff02191690831515021790555050565b60008054906101000a900473ffffffffffffffffffffffffffffffffffffffff1681565b60008054906101000a900473ffffffffffffffffffffffffffffffffffffffff1673ffffffffffffffffffffffffffffffffffffffff163373ffffffffffffffffffffffffffffffffffffffff1614610267576040517f08c379a000000000000000000000000000000000000000000000000000000000815260040161025e90610497565b60405180910390fd5b80600073ffffffffffffffffffffffffffffffffffffffff168173ffffffffffffffffffffffffffffffffffffffff1614156102d8576040517f08c379a00000000000000000000000000000000000000000000000000000000081526004016102cf906104b7565b60405180910390fd5b816000806101000a81548173ffffffffffffffffffffffffffffffffffffffff021916908373ffffffffffffffffffffffffffffffffffffffff1602179055505050565b600260009054906101000a900460ff1681565b60008135905061033e81610629565b92915050565b60008135905061035381610640565b92915050565b60006020828403121561036b57600080fd5b60006103798482850161032f565b91505092915050565b60006020828403121561039457600080fd5b60006103a284828501610344565b91505092915050565b6103b481610537565b82525050565b6103c381610549565b82525050565b60006103d6600d836104f2565b91506103e1826105ae565b602082019050919050565b60006103f96009836104f2565b9150610404826105d7565b602082019050919050565b600061041c6011836104f2565b915061042782610600565b602082019050919050565b61043b81610575565b82525050565b600060208201905061045660008301846103ab565b92915050565b600060208201905061047160008301846103ba565b92915050565b60006020820190508181036000830152610490816103c9565b9050919050565b600060208201905081810360008301526104b0816103ec565b9050919050565b600060208201905081810360008301526104d08161040f565b9050919050565b60006020820190506104ec6000830184610432565b92915050565b600082825260208201905092915050565b600061050e82610575565b915061051983610575565b92508282101561052c5761052b61057f565b5b828203905092915050565b600061054282610555565b9050919050565b60008115159050919050565b600073ffffffffffffffffffffffffffffffffffffffff82169050919050565b6000819050919050565b7f4e487b7100000000000000000000000000000000000000000000000000000000600052601160045260246000fd5b7f4e6f207265656e7472616e637900000000000000000000000000000000000000600082015250565b7f4e6f74206f776e65720000000000000000000000000000000000000000000000600082015250565b7f4e6f742076616c69642061646472657373000000000000000000000000000000600082015250565b61063281610537565b811461063d57600080fd5b50565b61064981610575565b811461065457600080fd5b5056fea26469706673582212207cd1f6ef736b39d733cf3cf82733df27712587ad4035dcb6735efb703a135b8464736f6c63430008040033",
  "linkReferences": {},
  "deployedLinkReferences": {}
}