{
  "_format": "hh-sol-artifact-1",
  "contractName": "Primitives",
  "sourceName": "contracts/Primitives.sol",
  "abi": [
    {
      "inputs": [],
      "name": "addr",
      "outputs": [
        {
          "internalType": "address",
          "name": "",
          "type": "address"
        }
      ],
      "stateMutability": "view",
      "type": "function"
    },
    {
      "inputs": [],
      "name": "boo",
      "outputs": [
        {
          "internalType": "bool",
          "name": "",
          "type": "bool"
        }
      ],
      "stateMutability": "view",
      "type": "function"
    },
    {
      "inputs": [],
      "name": "defaultAddr",
      "outputs": [
        {
          "internalType": "address",
          "name": "",
          "type": "address"
        }
      ],
      "stateMutability": "view",
      "type": "function"
    },
    {
      "inputs": [],
      "name": "defaultBoo",
      "outputs": [
        {
          "internalType": "bool",
          "name": "",
          "type": "bool"
        }
      ],
      "stateMutability": "view",
      "type": "function"
    },
    {
      "inputs": [],
      "name": "defaultInt",
      "outputs": [
        {
          "internalType": "int256",
          "name": "",
          "type": "int256"
        }
      ],
      "stateMutability": "view",
      "type": "function"
    },
    {
      "inputs": [],
      "name": "defaultUint",
      "outputs": [
        {
          "internalType": "uint256",
          "name": "",
          "type": "uint256"
        }
      ],
      "stateMutability": "view",
      "type": "function"
    },
    {
      "inputs": [],
      "name": "i",
      "outputs": [
        {
          "internalType": "int256",
          "name": "",
          "type": "int256"
        }
      ],
      "stateMutability": "view",
      "type": "function"
    },
    {
      "inputs": [],
      "name": "i256",
      "outputs": [
        {
          "internalType": "int256",
          "name": "",
          "type": "int256"
        }
      ],
      "stateMutability": "view",
      "type": "function"
    },
    {
      "inputs": [],
      "name": "i8",
      "outputs": [
        {
          "internalType": "int8",
          "name": "",
          "type": "int8"
        }
      ],
      "stateMutability": "view",
      "type": "function"
    },
    {
      "inputs": [],
      "name": "maxInt",
      "outputs": [
        {
          "internalType": "int256",
          "name": "",
          "type": "int256"
        }
      ],
      "stateMutability": "view",
      "type": "function"
    },
    {
      "inputs": [],
      "name": "minInt",
      "outputs": [
        {
          "internalType": "int256",
          "name": "",
          "type": "int256"
        }
      ],
      "stateMutability": "view",
      "type": "function"
    },
    {
      "inputs": [],
      "name": "u",
      "outputs": [
        {
          "internalType": "uint256",
          "name": "",
          "type": "uint256"
        }
      ],
      "stateMutability": "view",
      "type": "function"
    },
    {
      "inputs": [],
      "name": "u256",
      "outputs": [
        {
          "internalType": "uint256",
          "name": "",
          "type": "uint256"
        }
      ],
      "stateMutability": "view",
      "type": "function"
    },
    {
      "inputs": [],
      "name": "u8",
      "outputs": [
        {
          "internalType": "uint8",
          "name": "",
          "type": "uint8"
        }
      ],
      "stateMutability": "view",
      "type": "function"
    }
  ],
  "bytecode": "0x608060405260016000806101000a81548160ff0219169083151502179055506001600060016101000a81548160ff021916908360ff1602179055506101c8600155607b6002557fffffffffffffffffffffffffffffffffffffffffffffffffffffffffffffffff600360006101000a81548160ff021916908360000b60ff1602179055506101c86004557fffffffffffffffffffffffffffffffffffffffffffffffffffffffffffffff856005557f80000000000000000000000000000000000000000000000000000000000000006006557f7fffffffffffffffffffffffffffffffffffffffffffffffffffffffffffffff60075573ca35b7d915458ef540ade6068dfe2f44e8fa733c600860006101000a81548173ffffffffffffffffffffffffffffffffffffffff021916908373ffffffffffffffffffffffffffffffffffffffff16021790555034801561015657600080fd5b506104f7806101666000396000f3fe608060405234801561001057600080fd5b50600436106100ea5760003560e01c80637a4c25711161008c578063ab3a58a311610066578063ab3a58a31461021b578063c6a898c514610239578063e5aa3d5814610257578063f2427d3714610275576100ea565b80637a4c2571146101c15780637e4e14cc146101df578063921cda74146101fd576100ea565b80634b3df200116100c85780634b3df200146101495780634c27fd62146101675780635abe622b14610185578063767800de146101a3576100ea565b8063074eef3f146100ef5780631570c2cb1461010d578063459b1acf1461012b575b600080fd5b6100f7610293565b60405161010491906103ce565b60405180910390f35b6101156102a6565b604051610122919061041f565b60405180910390f35b6101336102ac565b604051610140919061041f565b60405180910390f35b6101516102b2565b60405161015e91906103ce565b60405180910390f35b61016f6102c3565b60405161017c91906103e9565b60405180910390f35b61018d6102c9565b60405161019a91906103e9565b60405180910390f35b6101ab6102cf565b6040516101b891906103b3565b60405180910390f35b6101c96102f5565b6040516101d691906103e9565b60405180910390f35b6101e76102fb565b6040516101f491906103e9565b60405180910390f35b610205610301565b6040516102129190610404565b60405180910390f35b610223610314565b604051610230919061043a565b60405180910390f35b610241610327565b60405161024e919061041f565b60405180910390f35b61025f61032d565b60405161026c91906103e9565b60405180910390f35b61027d610333565b60405161028a91906103b3565b60405180910390f35b600860149054906101000a900460ff1681565b60095481565b60015481565b60008054906101000a900460ff1681565b60045481565b600a5481565b600860009054906101000a900473ffffffffffffffffffffffffffffffffffffffff1681565b60075481565b60065481565b600360009054906101000a900460000b81565b600060019054906101000a900460ff1681565b60025481565b60055481565b600b60009054906101000a900473ffffffffffffffffffffffffffffffffffffffff1681565b61036281610455565b82525050565b61037181610467565b82525050565b61038081610473565b82525050565b61038f8161047d565b82525050565b61039e816104aa565b82525050565b6103ad816104b4565b82525050565b60006020820190506103c86000830184610359565b92915050565b60006020820190506103e36000830184610368565b92915050565b60006020820190506103fe6000830184610377565b92915050565b60006020820190506104196000830184610386565b92915050565b60006020820190506104346000830184610395565b92915050565b600060208201905061044f60008301846103a4565b92915050565b60006104608261048a565b9050919050565b60008115159050919050565b6000819050919050565b60008160000b9050919050565b600073ffffffffffffffffffffffffffffffffffffffff82169050919050565b6000819050919050565b600060ff8216905091905056fea2646970667358221220d119c5aaf6bd3fdf8925cf7c637831fb769df0731c42757d979e82f492af18b164736f6c63430008040033",
  "linkReferences": {},
  "deployedLinkReferences": {}
}