{
  "_format": "hh-sol-artifact-1",
  "contractName": "Child",
  "sourceName": "contracts/Shadow.sol",
  "abi": [
    {
      "inputs": [],
      "stateMutability": "nonpayable",
      "type": "constructor"
    },
    {
      "inputs": [],
      "name": "getName",
      "outputs": [
        {
          "internalType": "string",
          "name": "",
          "type": "string"
        }
      ],
      "stateMutability": "view",
      "type": "function"
    },
    {
      "inputs": [],
      "name": "name",
      "outputs": [
        {
          "internalType": "string",
          "name": "",
          "type": "string"
        }
      ],
      "stateMutability": "view",
      "type": "function"
    }
  ],
  "bytecode": "0x60806040526040518060400160405280600f81526020017f436f6e747261637420506172656e7400000000000000000000000000000000008152506000908051906020019061004f9291906100ae565b5034801561005c57600080fd5b506040518060400160405280600e81526020017f436f6e7472616374204368696c64000000000000000000000000000000000000815250600090805190602001906100a89291906100ae565b506101b2565b8280546100ba90610151565b90600052602060002090601f0160209004810192826100dc5760008555610123565b82601f106100f557805160ff1916838001178555610123565b82800160010185558215610123579182015b82811115610122578251825591602001919060010190610107565b5b5090506101309190610134565b5090565b5b8082111561014d576000816000905550600101610135565b5090565b6000600282049050600182168061016957607f821691505b6020821081141561017d5761017c610183565b5b50919050565b7f4e487b7100000000000000000000000000000000000000000000000000000000600052602260045260246000fd5b6102e9806101c16000396000f3fe608060405234801561001057600080fd5b50600436106100365760003560e01c806306fdde031461003b57806317d7de7c14610059575b600080fd5b610043610077565b60405161005091906101d0565b60405180910390f35b610061610105565b60405161006e91906101d0565b60405180910390f35b6000805461008490610241565b80601f01602080910402602001604051908101604052809291908181526020018280546100b090610241565b80156100fd5780601f106100d2576101008083540402835291602001916100fd565b820191906000526020600020905b8154815290600101906020018083116100e057829003601f168201915b505050505081565b60606000805461011490610241565b80601f016020809104026020016040519081016040528092919081815260200182805461014090610241565b801561018d5780601f106101625761010080835404028352916020019161018d565b820191906000526020600020905b81548152906001019060200180831161017057829003601f168201915b5050505050905090565b60006101a2826101f2565b6101ac81856101fd565b93506101bc81856020860161020e565b6101c5816102a2565b840191505092915050565b600060208201905081810360008301526101ea8184610197565b905092915050565b600081519050919050565b600082825260208201905092915050565b60005b8381101561022c578082015181840152602081019050610211565b8381111561023b576000848401525b50505050565b6000600282049050600182168061025957607f821691505b6020821081141561026d5761026c610273565b5b50919050565b7f4e487b7100000000000000000000000000000000000000000000000000000000600052602260045260246000fd5b6000601f19601f830116905091905056fea2646970667358221220297e8fd31a6ca212536861136bc1f180d3796f948538e6566ccb9fc2ff46499e64736f6c63430008040033",
  "linkReferences": {},
  "deployedLinkReferences": {}
}