{
  "_format": "hh-sol-artifact-1",
  "contractName": "Gas",
  "sourceName": "contracts/Gas.sol",
  "abi": [
    {
      "inputs": [],
      "name": "forever",
      "outputs": [],
      "stateMutability": "nonpayable",
      "type": "function"
    },
    {
      "inputs": [],
      "name": "i",
      "outputs": [
        {
          "internalType": "uint256",
          "name": "",
          "type": "uint256"
        }
      ],
      "stateMutability": "view",
      "type": "function"
    }
  ],
  "bytecode": "0x60806040526000805534801561001457600080fd5b50610180806100246000396000f3fe608060405234801561001057600080fd5b50600436106100365760003560e01c80639ff9a6031461003b578063e5aa3d5814610045575b600080fd5b610043610063565b005b61004d61008b565b60405161005a91906100a0565b60405180910390f35b5b60011561008957600160008082825461007d91906100bb565b92505081905550610064565b565b60005481565b61009a81610111565b82525050565b60006020820190506100b56000830184610091565b92915050565b60006100c682610111565b91506100d183610111565b9250827fffffffffffffffffffffffffffffffffffffffffffffffffffffffffffffffff038211156101065761010561011b565b5b828201905092915050565b6000819050919050565b7f4e487b7100000000000000000000000000000000000000000000000000000000600052601160045260246000fdfea2646970667358221220cb6e1e7cf6074d446916d58dea6f982778fed179bb126e58a36fc2d693ac5ace64736f6c63430008040033",
  "linkReferences": {},
  "deployedLinkReferences": {}
}