{
  "_format": "hh-sol-artifact-1",
  "contractName": "Enum",
  "sourceName": "contracts/Enum.sol",
  "abi": [
    {
      "inputs": [],
      "name": "cancel",
      "outputs": [],
      "stateMutability": "nonpayable",
      "type": "function"
    },
    {
      "inputs": [],
      "name": "get",
      "outputs": [
        {
          "internalType": "enum Enum.Status",
          "name": "",
          "type": "uint8"
        }
      ],
      "stateMutability": "view",
      "type": "function"
    },
    {
      "inputs": [],
      "name": "reset",
      "outputs": [],
      "stateMutability": "nonpayable",
      "type": "function"
    },
    {
      "inputs": [
        {
          "internalType": "enum Enum.Status",
          "name": "_status",
          "type": "uint8"
        }
      ],
      "name": "set",
      "outputs": [],
      "stateMutability": "nonpayable",
      "type": "function"
    },
    {
      "inputs": [],
      "name": "status",
      "outputs": [
        {
          "internalType": "enum Enum.Status",
          "name": "",
          "type": "uint8"
        }
      ],
      "stateMutability": "view",
      "type": "function"
    }
  ],
  "bytecode": "0x608060405234801561001057600080fd5b506102bc806100206000396000f3fe608060405234801561001057600080fd5b50600436106100575760003560e01c8063200d2ed21461005c57806324b8ba5f1461007a5780636d4ce63c14610096578063d826f88f146100b4578063ea8a1af0146100be575b600080fd5b6100646100c8565b60405161007191906101f3565b60405180910390f35b610094600480360381019061008f91906101bb565b6100d9565b005b61009e61012b565b6040516100ab91906101f3565b60405180910390f35b6100bc610141565b005b6100c6610154565b005b60008054906101000a900460ff1681565b806000806101000a81548160ff02191690836004811115610123577f4e487b7100000000000000000000000000000000000000000000000000000000600052602160045260246000fd5b021790555050565b60008060009054906101000a900460ff16905090565b6000806101000a81549060ff0219169055565b60046000806101000a81548160ff0219169083600481111561019f577f4e487b7100000000000000000000000000000000000000000000000000000000600052602160045260246000fd5b0217905550565b6000813590506101b581610276565b92915050565b6000602082840312156101cd57600080fd5b60006101db848285016101a6565b91505092915050565b6101ed81610221565b82525050565b600060208201905061020860008301846101e4565b92915050565b600081905061021c82610262565b919050565b600061022c8261020e565b9050919050565b7f4e487b7100000000000000000000000000000000000000000000000000000000600052602160045260246000fd5b6005811061027357610272610233565b5b50565b6005811061028357600080fd5b5056fea26469706673582212200727575d4a8f0ecada01a34b1ff05f6f03d2af08f914d332cb1cce3dfd40d33064736f6c63430008040033",
  "linkReferences": {},
  "deployedLinkReferences": {}
}