{
  "_format": "hh-sol-artifact-1",
  "contractName": "Loop",
  "sourceName": "contracts/Loop.sol",
  "abi": [
    {
      "inputs": [],
      "name": "loop",
      "outputs": [],
      "stateMutability": "nonpayable",
      "type": "function"
    }
  ],
  "bytecode": "0x608060405234801561001057600080fd5b50610151806100206000396000f3fe608060405234801561001057600080fd5b506004361061002b5760003560e01c8063a92100cb14610030575b600080fd5b61003861003a565b005b60005b600a81101561007657600381141561005457610063565b600581141561006257610076565b5b808061006e906100a3565b91505061003d565b5060005b600a81101561009657808061008e906100a3565b91505061007a565b50565b6000819050919050565b60006100ae82610099565b91507fffffffffffffffffffffffffffffffffffffffffffffffffffffffffffffffff8214156100e1576100e06100ec565b5b600182019050919050565b7f4e487b7100000000000000000000000000000000000000000000000000000000600052601160045260246000fdfea2646970667358221220a8620e812129d91211e21097bd012db61689a8e7b5aea4662d01bc441da1c56c64736f6c63430008040033",
  "linkReferences": {},
  "deployedLinkReferences": {}
}