{
  "_format": "hh-sol-artifact-1",
  "contractName": "Error",
  "sourceName": "contracts/Error.sol",
  "abi": [
    {
      "inputs": [
        {
          "internalType": "uint256",
          "name": "balance",
          "type": "uint256"
        },
        {
          "internalType": "uint256",
          "name": "withdrawAmount",
          "type": "uint256"
        }
      ],
      "name": "InsufficientBalance",
      "type": "error"
    },
    {
      "inputs": [],
      "name": "num",
      "outputs": [
        {
          "internalType": "uint256",
          "name": "",
          "type": "uint256"
        }
      ],
      "stateMutability": "view",
      "type": "function"
    },
    {
      "inputs": [],
      "name": "testAssert",
      "outputs": [],
      "stateMutability": "view",
      "type": "function"
    },
    {
      "inputs": [
        {
          "internalType": "uint256",
          "name": "_withdrawAmount",
          "type": "uint256"
        }
      ],
      "name": "testCustomError",
      "outputs": [],
      "stateMutability": "view",
      "type": "function"
    },
    {
      "inputs": [
        {
          "internalType": "uint256",
          "name": "_i",
          "type": "uint256"
        }
      ],
      "name": "testRequire",
      "outputs": [],
      "stateMutability": "pure",
      "type": "function"
    },
    {
      "inputs": [
        {
          "internalType": "uint256",
          "name": "_i",
          "type": "uint256"
        }
      ],
      "name": "testRevert",
      "outputs": [],
      "stateMutability": "pure",
      "type": "function"
    }
  ],
  "bytecode": "0x608060405234801561001057600080fd5b50610359806100206000396000f3fe608060405234801561001057600080fd5b50600436106100575760003560e01c8063209877671461005c5780632b813bc0146100785780634e70b1dc1461008257806375f7286c146100a0578063b8bd717f146100bc575b600080fd5b61007660048036038101906100719190610209565b6100d8565b005b61008061011e565b005b61008a610158565b6040516100979190610284565b60405180910390f35b6100ba60048036038101906100b59190610209565b61015e565b005b6100d660048036038101906100d19190610209565b6101ae565b005b600a811161011b576040517f08c379a000000000000000000000000000000000000000000000000000000000815260040161011290610264565b60405180910390fd5b50565b6000805414610156577f4e487b7100000000000000000000000000000000000000000000000000000000600052600160045260246000fd5b565b60005481565b6000479050818110156101aa5780826040517fcf4791810000000000000000000000000000000000000000000000000000000081526004016101a192919061029f565b60405180910390fd5b5050565b600a81116101f1576040517f08c379a00000000000000000000000000000000000000000000000000000000081526004016101e890610264565b60405180910390fd5b50565b6000813590506102038161030c565b92915050565b60006020828403121561021b57600080fd5b6000610229848285016101f4565b91505092915050565b600061023f601d836102c8565b915061024a826102e3565b602082019050919050565b61025e816102d9565b82525050565b6000602082019050818103600083015261027d81610232565b9050919050565b60006020820190506102996000830184610255565b92915050565b60006040820190506102b46000830185610255565b6102c16020830184610255565b9392505050565b600082825260208201905092915050565b6000819050919050565b7f496e707574206d7573742062652067726561746572207468616e203130000000600082015250565b610315816102d9565b811461032057600080fd5b5056fea2646970667358221220bc134ca0f8748ba50092fb26cc164d1a7c428b08b9e11bfc5799e202bdecb23f64736f6c63430008040033",
  "linkReferences": {},
  "deployedLinkReferences": {}
}