{
  "_format": "hh-sol-artifact-1",
  "contractName": "ChildVisibility",
  "sourceName": "contracts/Visibility.sol",
  "abi": [
    {
      "inputs": [],
      "name": "externalFunc",
      "outputs": [
        {
          "internalType": "string",
          "name": "",
          "type": "string"
        }
      ],
      "stateMutability": "pure",
      "type": "function"
    },
    {
      "inputs": [],
      "name": "publicFunc",
      "outputs": [
        {
          "internalType": "string",
          "name": "",
          "type": "string"
        }
      ],
      "stateMutability": "pure",
      "type": "function"
    },
    {
      "inputs": [],
      "name": "publicVar",
      "outputs": [
        {
          "internalType": "string",
          "name": "",
          "type": "string"
        }
      ],
      "stateMutability": "view",
      "type": "function"
    },
    {
      "inputs": [],
      "name": "testInternalFunc",
      "outputs": [
        {
          "internalType": "string",
          "name": "",
          "type": "string"
        }
      ],
      "stateMutability": "pure",
      "type": "function"
    },
    {
      "inputs": [],
      "name": "testPrivateFunc",
      "outputs": [
        {
          "internalType": "string",
          "name": "",
          "type": "string"
        }
      ],
      "stateMutability": "pure",
      "type": "function"
    }
  ],
  "bytecode": "0x60806040526040518060400160405280601381526020017f6d792070726976617465207661726961626c65000000000000000000000000008152506000908051906020019061004f9291906100fa565b506040518060400160405280601481526020017f6d7920696e7465726e616c207661726961626c650000000000000000000000008152506001908051906020019061009b9291906100fa565b506040518060400160405280601281526020017f6d79207075626c6963207661726961626c650000000000000000000000000000815250600290805190602001906100e79291906100fa565b503480156100f457600080fd5b506101fe565b8280546101069061019d565b90600052602060002090601f016020900481019282610128576000855561016f565b82601f1061014157805160ff191683800117855561016f565b8280016001018555821561016f579182015b8281111561016e578251825591602001919060010190610153565b5b50905061017c9190610180565b5090565b5b80821115610199576000816000905550600101610181565b5090565b600060028204905060018216806101b557607f821691505b602082108114156101c9576101c86101cf565b5b50919050565b7f4e487b7100000000000000000000000000000000000000000000000000000000600052602260045260246000fd5b6103e48061020d6000396000f3fe608060405234801561001057600080fd5b50600436106100575760003560e01c80630eb13f871461005c5780631151fad81461007a57806342b148aa146100985780634b73383f146100b6578063e8e46c41146100d4575b600080fd5b6100646100f2565b60405161007191906102cb565b60405180910390f35b610082610101565b60405161008f91906102cb565b60405180910390f35b6100a061018f565b6040516100ad91906102cb565b60405180910390f35b6100be6101cc565b6040516100cb91906102cb565b60405180910390f35b6100dc610209565b6040516100e991906102cb565b60405180910390f35b60606100fc610218565b905090565b6002805461010e9061033c565b80601f016020809104026020016040519081016040528092919081815260200182805461013a9061033c565b80156101875780601f1061015c57610100808354040283529160200191610187565b820191906000526020600020905b81548152906001019060200180831161016a57829003601f168201915b505050505081565b60606040518060400160405280601881526020017f65787465726e616c2066756e6374696f6e2063616c6c65640000000000000000815250905090565b60606040518060400160405280601681526020017f7075626c69632066756e6374696f6e2063616c6c656400000000000000000000815250905090565b6060610213610255565b905090565b60606040518060400160405280601781526020017f707269766174652066756e6374696f6e2063616c6c6564000000000000000000815250905090565b60606040518060400160405280601881526020017f696e7465726e616c2066756e6374696f6e2063616c6c65640000000000000000815250905090565b600061029d826102ed565b6102a781856102f8565b93506102b7818560208601610309565b6102c08161039d565b840191505092915050565b600060208201905081810360008301526102e58184610292565b905092915050565b600081519050919050565b600082825260208201905092915050565b60005b8381101561032757808201518184015260208101905061030c565b83811115610336576000848401525b50505050565b6000600282049050600182168061035457607f821691505b602082108114156103685761036761036e565b5b50919050565b7f4e487b7100000000000000000000000000000000000000000000000000000000600052602260045260246000fd5b6000601f19601f830116905091905056fea26469706673582212208af10da4d2bd68e577b6fec5538f7112493ee5266fb1c0191f2ea2113259ccbe64736f6c63430008040033",
  "linkReferences": {},
  "deployedLinkReferences": {}
}