{
  "_format": "hh-sol-artifact-1",
  "contractName": "Immutable",
  "sourceName": "contracts/Immutable.sol",
  "abi": [
    {
      "inputs": [
        {
          "internalType": "uint256",
          "name": "_myUint",
          "type": "uint256"
        }
      ],
      "stateMutability": "nonpayable",
      "type": "constructor"
    },
    {
      "inputs": [],
      "name": "MY_ADDRESS",
      "outputs": [
        {
          "internalType": "address",
          "name": "",
          "type": "address"
        }
      ],
      "stateMutability": "view",
      "type": "function"
    },
    {
      "inputs": [],
      "name": "MY_UINT",
      "outputs": [
        {
          "internalType": "uint256",
          "name": "",
          "type": "uint256"
        }
      ],
      "stateMutability": "view",
      "type": "function"
    }
  ],
  "bytecode": "0x60c060405234801561001057600080fd5b506040516102813803806102818339818101604052810190610032919061008c565b3373ffffffffffffffffffffffffffffffffffffffff1660808173ffffffffffffffffffffffffffffffffffffffff1660601b815250508060a08181525050506100d6565b600081519050610086816100bf565b92915050565b60006020828403121561009e57600080fd5b60006100ac84828501610077565b91505092915050565b6000819050919050565b6100c8816100b5565b81146100d357600080fd5b50565b60805160601c60a0516101856100fc6000396000607901526000609d01526101856000f3fe608060405234801561001057600080fd5b50600436106100365760003560e01c80631f6649e31461003b5780633a756cec14610059575b600080fd5b610043610077565b60405161005091906100f8565b60405180910390f35b61006161009b565b60405161006e91906100dd565b60405180910390f35b7f000000000000000000000000000000000000000000000000000000000000000081565b7f000000000000000000000000000000000000000000000000000000000000000081565b6100c881610113565b82525050565b6100d781610145565b82525050565b60006020820190506100f260008301846100bf565b92915050565b600060208201905061010d60008301846100ce565b92915050565b600061011e82610125565b9050919050565b600073ffffffffffffffffffffffffffffffffffffffff82169050919050565b600081905091905056fea2646970667358221220113fbc239607e06475077a4cc3b6c5d99bc7e2c4c3f3ce6bf9fd3aa5f019ec4764736f6c63430008040033",
  "linkReferences": {},
  "deployedLinkReferences": {}
}