{
  "_format": "hh-sol-artifact-1",
  "contractName": "NestedMapping",
  "sourceName": "contracts/NestedMapping.sol",
  "abi": [
    {
      "inputs": [
        {
          "internalType": "address",
          "name": "_addr1",
          "type": "address"
        },
        {
          "internalType": "uint256",
          "name": "_i",
          "type": "uint256"
        }
      ],
      "name": "get",
      "outputs": [
        {
          "internalType": "bool",
          "name": "",
          "type": "bool"
        }
      ],
      "stateMutability": "view",
      "type": "function"
    },
    {
      "inputs": [
        {
          "internalType": "address",
          "name": "",
          "type": "address"
        },
        {
          "internalType": "uint256",
          "name": "",
          "type": "uint256"
        }
      ],
      "name": "nested",
      "outputs": [
        {
          "internalType": "bool",
          "name": "",
          "type": "bool"
        }
      ],
      "stateMutability": "view",
      "type": "function"
    },
    {
      "inputs": [
        {
          "internalType": "address",
          "name": "_addr1",
          "type": "address"
        },
        {
          "internalType": "uint256",
          "name": "_i",
          "type": "uint256"
        }
      ],
      "name": "remove",
      "outputs": [],
      "stateMutability": "nonpayable",
      "type": "function"
    },
    {
      "inputs": [
        {
          "internalType": "address",
          "name": "_addr1",
          "type": "address"
        },
        {
          "internalType": "uint256",
          "name": "_i",
          "type": "uint256"
        },
        {
          "internalType": "bool",
          "name": "_boo",
          "type": "bool"
        }
      ],
      "name": "set",
      "outputs": [],
      "stateMutability": "nonpayable",
      "type": "function"
    }
  ],
  "bytecode": "0x608060405234801561001057600080fd5b50610405806100206000396000f3fe608060405234801561001057600080fd5b506004361061004c5760003560e01c80630b1391941461005157806314bd0a7b1461006d578063abe7f1ab1461009d578063b464631b146100b9575b600080fd5b61006b600480360381019061006691906102c9565b6100e9565b005b6100876004803603810190610082919061028d565b610155565b6040516100949190610327565b60405180910390f35b6100b760048036038101906100b2919061028d565b610184565b005b6100d360048036038101906100ce919061028d565b6101e7565b6040516100e09190610327565b60405180910390f35b806000808573ffffffffffffffffffffffffffffffffffffffff1673ffffffffffffffffffffffffffffffffffffffff168152602001908152602001600020600084815260200190815260200160002060006101000a81548160ff021916908315150217905550505050565b60006020528160005260406000206020528060005260406000206000915091509054906101000a900460ff1681565b6000808373ffffffffffffffffffffffffffffffffffffffff1673ffffffffffffffffffffffffffffffffffffffff168152602001908152602001600020600082815260200190815260200160002060006101000a81549060ff02191690555050565b60008060008473ffffffffffffffffffffffffffffffffffffffff1673ffffffffffffffffffffffffffffffffffffffff168152602001908152602001600020600083815260200190815260200160002060009054906101000a900460ff16905092915050565b60008135905061025d8161038a565b92915050565b600081359050610272816103a1565b92915050565b600081359050610287816103b8565b92915050565b600080604083850312156102a057600080fd5b60006102ae8582860161024e565b92505060206102bf85828601610278565b9150509250929050565b6000806000606084860312156102de57600080fd5b60006102ec8682870161024e565b93505060206102fd86828701610278565b925050604061030e86828701610263565b9150509250925092565b61032181610354565b82525050565b600060208201905061033c6000830184610318565b92915050565b600061034d82610360565b9050919050565b60008115159050919050565b600073ffffffffffffffffffffffffffffffffffffffff82169050919050565b6000819050919050565b61039381610342565b811461039e57600080fd5b50565b6103aa81610354565b81146103b557600080fd5b50565b6103c181610380565b81146103cc57600080fd5b5056fea2646970667358221220d7d0215a4f2cc85b2033ebb3bc614e0d57eb0a0d70ada8be26abf2d1b96819aa64736f6c63430008040033",
  "linkReferences": {},
  "deployedLinkReferences": {}
}