{
  "_format": "hh-sol-artifact-1",
  "contractName": "Caller",
  "sourceName": "contracts/Call.sol",
  "abi": [
    {
      "anonymous": false,
      "inputs": [
        {
          "indexed": false,
          "internalType": "bool",
          "name": "success",
          "type": "bool"
        },
        {
          "indexed": false,
          "internalType": "bytes",
          "name": "data",
          "type": "bytes"
        }
      ],
      "name": "Response",
      "type": "event"
    },
    {
      "inputs": [
        {
          "internalType": "address",
          "name": "_addr",
          "type": "address"
        }
      ],
      "name": "testCallDoesNotExist",
      "outputs": [],
      "stateMutability": "nonpayable",
      "type": "function"
    },
    {
      "inputs": [
        {
          "internalType": "address payable",
          "name": "_addr",
          "type": "address"
        }
      ],
      "name": "testCallFoo",
      "outputs": [],
      "stateMutability": "payable",
      "type": "function"
    }
  ],
  "bytecode": "0x608060405234801561001057600080fd5b506105f7806100206000396000f3fe6080604052600436106100295760003560e01c806387ba61791461002e578063ff00726c1461004a575b600080fd5b61004860048036038101906100439190610336565b610073565b005b34801561005657600080fd5b50610071600480360381019061006c919061030d565b6101b4565b005b6000808273ffffffffffffffffffffffffffffffffffffffff163461138890607b6040516024016100a49190610451565b6040516020818303038152906040527f24ccab8f000000000000000000000000000000000000000000000000000000007bffffffffffffffffffffffffffffffffffffffffffffffffffffffff19166020820180517bffffffffffffffffffffffffffffffffffffffffffffffffffffffff838183161783525050505060405161012e919061040a565b600060405180830381858888f193505050503d806000811461016c576040519150601f19603f3d011682016040523d82523d6000602084013e610171565b606091505b50915091507f13848c3e38f8886f3f5d2ad9dff80d8092c2bbb8efd5b887a99c2c6cfc09ac2a82826040516101a7929190610421565b60405180910390a1505050565b6000808273ffffffffffffffffffffffffffffffffffffffff166040516024016040516020818303038152906040527f1dcc85ae000000000000000000000000000000000000000000000000000000007bffffffffffffffffffffffffffffffffffffffffffffffffffffffff19166020820180517bffffffffffffffffffffffffffffffffffffffffffffffffffffffff838183161783525050505060405161025e919061040a565b6000604051808303816000865af19150503d806000811461029b576040519150601f19603f3d011682016040523d82523d6000602084013e6102a0565b606091505b50915091507f13848c3e38f8886f3f5d2ad9dff80d8092c2bbb8efd5b887a99c2c6cfc09ac2a82826040516102d6929190610421565b60405180910390a1505050565b6000813590506102f281610593565b92915050565b600081359050610307816105aa565b92915050565b60006020828403121561031f57600080fd5b600061032d848285016102e3565b91505092915050565b60006020828403121561034857600080fd5b6000610356848285016102f8565b91505092915050565b610368816104db565b82525050565b60006103798261047f565b610383818561048a565b9350610393818560208601610526565b61039c81610559565b840191505092915050565b60006103b28261047f565b6103bc818561049b565b93506103cc818560208601610526565b80840191505092915050565b6103e181610514565b82525050565b60006103f46008836104a6565b91506103ff8261056a565b602082019050919050565b600061041682846103a7565b915081905092915050565b6000604082019050610436600083018561035f565b8181036020830152610448818461036e565b90509392505050565b6000604082019050818103600083015261046a816103e7565b905061047960208301846103d8565b92915050565b600081519050919050565b600082825260208201905092915050565b600081905092915050565b600082825260208201905092915050565b60006104c2826104e7565b9050919050565b60006104d4826104e7565b9050919050565b60008115159050919050565b600073ffffffffffffffffffffffffffffffffffffffff82169050919050565b600060ff82169050919050565b600061051f82610507565b9050919050565b60005b83811015610544578082015181840152602081019050610529565b83811115610553576000848401525b50505050565b6000601f19601f8301169050919050565b7f63616c6c20666f6f000000000000000000000000000000000000000000000000600082015250565b61059c816104b7565b81146105a757600080fd5b50565b6105b3816104c9565b81146105be57600080fd5b5056fea2646970667358221220ab07ab000aefe450f18c9c9014ed0d10a5d8124535fd1ce6e755b39b8f4fe54364736f6c63430008040033",
  "linkReferences": {},
  "deployedLinkReferences": {}
}