{
  "_format": "hh-sol-artifact-1",
  "contractName": "Receiver",
  "sourceName": "contracts/Call.sol",
  "abi": [
    {
      "anonymous": false,
      "inputs": [
        {
          "indexed": false,
          "internalType": "address",
          "name": "caller",
          "type": "address"
        },
        {
          "indexed": false,
          "internalType": "uint256",
          "name": "amount",
          "type": "uint256"
        },
        {
          "indexed": false,
          "internalType": "string",
          "name": "message",
          "type": "string"
        }
      ],
      "name": "Received",
      "type": "event"
    },
    {
      "stateMutability": "payable",
      "type": "fallback"
    },
    {
      "inputs": [
        {
          "internalType": "string",
          "name": "_message",
          "type": "string"
        },
        {
          "internalType": "uint256",
          "name": "_x",
          "type": "uint256"
        }
      ],
      "name": "foo",
      "outputs": [
        {
          "internalType": "uint256",
          "name": "",
          "type": "uint256"
        }
      ],
      "stateMutability": "payable",
      "type": "function"
    }
  ],
  "bytecode": "0x608060405234801561001057600080fd5b5061051c806100206000396000f3fe6080604052600436106100225760003560e01c806324ccab8f1461005e57610023565b5b7f59e04c3f0d44b7caf6e8ef854b61d9a51cf1960d7a88ff6356cc5e946b4b58323334604051610054929190610269565b60405180910390a1005b6100786004803603810190610073919061015d565b61008e565b60405161008591906102a5565b60405180910390f35b60007f59e04c3f0d44b7caf6e8ef854b61d9a51cf1960d7a88ff6356cc5e946b4b58323334856040516100c39392919061022b565b60405180910390a16001826100d89190610332565b905092915050565b60006100f36100ee846102e5565b6102c0565b90508281526020810184848401111561010b57600080fd5b6101168482856103c4565b509392505050565b600082601f83011261012f57600080fd5b813561013f8482602086016100e0565b91505092915050565b600081359050610157816104cf565b92915050565b6000806040838503121561017057600080fd5b600083013567ffffffffffffffff81111561018a57600080fd5b6101968582860161011e565b92505060206101a785828601610148565b9150509250929050565b6101ba81610388565b82525050565b60006101cb82610316565b6101d58185610321565b93506101e58185602086016103d3565b6101ee81610495565b840191505092915050565b6000610206601383610321565b9150610211826104a6565b602082019050919050565b610225816103ba565b82525050565b600060608201905061024060008301866101b1565b61024d602083018561021c565b818103604083015261025f81846101c0565b9050949350505050565b600060608201905061027e60008301856101b1565b61028b602083018461021c565b818103604083015261029c816101f9565b90509392505050565b60006020820190506102ba600083018461021c565b92915050565b60006102ca6102db565b90506102d68282610406565b919050565b6000604051905090565b600067ffffffffffffffff821115610300576102ff610466565b5b61030982610495565b9050602081019050919050565b600081519050919050565b600082825260208201905092915050565b600061033d826103ba565b9150610348836103ba565b9250827fffffffffffffffffffffffffffffffffffffffffffffffffffffffffffffffff0382111561037d5761037c610437565b5b828201905092915050565b60006103938261039a565b9050919050565b600073ffffffffffffffffffffffffffffffffffffffff82169050919050565b6000819050919050565b82818337600083830152505050565b60005b838110156103f15780820151818401526020810190506103d6565b83811115610400576000848401525b50505050565b61040f82610495565b810181811067ffffffffffffffff8211171561042e5761042d610466565b5b80604052505050565b7f4e487b7100000000000000000000000000000000000000000000000000000000600052601160045260246000fd5b7f4e487b7100000000000000000000000000000000000000000000000000000000600052604160045260246000fd5b6000601f19601f8301169050919050565b7f46616c6c6261636b207761732063616c6c656400000000000000000000000000600082015250565b6104d8816103ba565b81146104e357600080fd5b5056fea26469706673582212209b34d263bbb382f3f39eccdcca68702fdb974adb9d9be814a15a2e91c8227bcf64736f6c63430008040033",
  "linkReferences": {},
  "deployedLinkReferences": {}
}