{
  "_format": "hh-sol-artifact-1",
  "contractName": "Mapping",
  "sourceName": "contracts/Mapping.sol",
  "abi": [
    {
      "inputs": [
        {
          "internalType": "address",
          "name": "_addr",
          "type": "address"
        }
      ],
      "name": "get",
      "outputs": [
        {
          "internalType": "uint256",
          "name": "",
          "type": "uint256"
        }
      ],
      "stateMutability": "view",
      "type": "function"
    },
    {
      "inputs": [
        {
          "internalType": "address",
          "name": "",
          "type": "address"
        }
      ],
      "name": "myMap",
      "outputs": [
        {
          "internalType": "uint256",
          "name": "",
          "type": "uint256"
        }
      ],
      "stateMutability": "view",
      "type": "function"
    },
    {
      "inputs": [
        {
          "internalType": "address",
          "name": "_addr",
          "type": "address"
        }
      ],
      "name": "remove",
      "outputs": [],
      "stateMutability": "nonpayable",
      "type": "function"
    },
    {
      "inputs": [
        {
          "internalType": "address",
          "name": "_addr",
          "type": "address"
        },
        {
          "internalType": "uint256",
          "name": "_i",
          "type": "uint256"
        }
      ],
      "name": "set",
      "outputs": [],
      "stateMutability": "nonpayable",
      "type": "function"
    }
  ],
  "bytecode": "0x608060405234801561001057600080fd5b5061032e806100206000396000f3fe608060405234801561001057600080fd5b506004361061004c5760003560e01c806327cbd5291461005157806329092d0e146100815780633825d8281461009d578063c2bc2efc146100b9575b600080fd5b61006b600480360381019061006691906101ff565b6100e9565b6040516100789190610273565b60405180910390f35b61009b600480360381019061009691906101ff565b610101565b005b6100b760048036038101906100b29190610228565b610146565b005b6100d360048036038101906100ce91906101ff565b61018d565b6040516100e09190610273565b60405180910390f35b60006020528060005260406000206000915090505481565b6000808273ffffffffffffffffffffffffffffffffffffffff1673ffffffffffffffffffffffffffffffffffffffff1681526020019081526020016000206000905550565b806000808473ffffffffffffffffffffffffffffffffffffffff1673ffffffffffffffffffffffffffffffffffffffff168152602001908152602001600020819055505050565b60008060008373ffffffffffffffffffffffffffffffffffffffff1673ffffffffffffffffffffffffffffffffffffffff168152602001908152602001600020549050919050565b6000813590506101e4816102ca565b92915050565b6000813590506101f9816102e1565b92915050565b60006020828403121561021157600080fd5b600061021f848285016101d5565b91505092915050565b6000806040838503121561023b57600080fd5b6000610249858286016101d5565b925050602061025a858286016101ea565b9150509250929050565b61026d816102c0565b82525050565b60006020820190506102886000830184610264565b92915050565b6000610299826102a0565b9050919050565b600073ffffffffffffffffffffffffffffffffffffffff82169050919050565b6000819050919050565b6102d38161028e565b81146102de57600080fd5b50565b6102ea816102c0565b81146102f557600080fd5b5056fea264697066735822122087beb45c5c927f71c62c221d4a302ac01e997138d9de16de8d9d7f41d346de2e64736f6c63430008040033",
  "linkReferences": {},
  "deployedLinkReferences": {}
}