{
  "_format": "hh-sol-artifact-1",
  "contractName": "Function",
  "sourceName": "contracts/Function.sol",
  "abi": [
    {
      "inputs": [
        {
          "internalType": "uint256",
          "name": "",
          "type": "uint256"
        }
      ],
      "name": "arr",
      "outputs": [
        {
          "internalType": "uint256",
          "name": "",
          "type": "uint256"
        }
      ],
      "stateMutability": "view",
      "type": "function"
    },
    {
      "inputs": [
        {
          "internalType": "uint256[]",
          "name": "_arr",
          "type": "uint256[]"
        }
      ],
      "name": "arrayInput",
      "outputs": [],
      "stateMutability": "nonpayable",
      "type": "function"
    },
    {
      "inputs": [],
      "name": "arrayOutput",
      "outputs": [
        {
          "internalType": "uint256[]",
          "name": "",
          "type": "uint256[]"
        }
      ],
      "stateMutability": "view",
      "type": "function"
    },
    {
      "inputs": [],
      "name": "assigned",
      "outputs": [
        {
          "internalType": "uint256",
          "name": "x",
          "type": "uint256"
        },
        {
          "internalType": "bool",
          "name": "b",
          "type": "bool"
        },
        {
          "internalType": "uint256",
          "name": "y",
          "type": "uint256"
        }
      ],
      "stateMutability": "pure",
      "type": "function"
    },
    {
      "inputs": [],
      "name": "destructingAssignments",
      "outputs": [
        {
          "internalType": "uint256",
          "name": "",
          "type": "uint256"
        },
        {
          "internalType": "bool",
          "name": "",
          "type": "bool"
        },
        {
          "internalType": "uint256",
          "name": "",
          "type": "uint256"
        },
        {
          "internalType": "uint256",
          "name": "",
          "type": "uint256"
        },
        {
          "internalType": "uint256",
          "name": "",
          "type": "uint256"
        }
      ],
      "stateMutability": "pure",
      "type": "function"
    },
    {
      "inputs": [],
      "name": "named",
      "outputs": [
        {
          "internalType": "uint256",
          "name": "x",
          "type": "uint256"
        },
        {
          "internalType": "bool",
          "name": "b",
          "type": "bool"
        },
        {
          "internalType": "uint256",
          "name": "y",
          "type": "uint256"
        }
      ],
      "stateMutability": "pure",
      "type": "function"
    },
    {
      "inputs": [],
      "name": "returnMany",
      "outputs": [
        {
          "internalType": "uint256",
          "name": "",
          "type": "uint256"
        },
        {
          "internalType": "bool",
          "name": "",
          "type": "bool"
        },
        {
          "internalType": "uint256",
          "name": "",
          "type": "uint256"
        }
      ],
      "stateMutability": "pure",
      "type": "function"
    }
  ],
  "bytecode": "0x608060405234801561001057600080fd5b5061064d806100206000396000f3fe608060405234801561001057600080fd5b506004361061007d5760003560e01c806371e5ee5f1161005b57806371e5ee5f146100e25780638688754414610112578063adb4d99014610132578063f4bb6e6b146101525761007d565b80631990532b146100825780633f7f3db6146100a057806345f907a8146100c2575b600080fd5b61008a61016e565b6040516100979190610428565b60405180910390f35b6100a86101c6565b6040516100b995949392919061049c565b60405180910390f35b6100ca610209565b6040516100d993929190610465565b60405180910390f35b6100fc60048036038101906100f7919061035c565b61021e565b604051610109919061044a565b60405180910390f35b61011a610242565b60405161012993929190610465565b60405180910390f35b61013a610257565b60405161014993929190610465565b60405180910390f35b61016c6004803603810190610167919061031b565b61026d565b005b606060008054806020026020016040519081016040528092919081815260200182805480156101bc57602002820191906000526020600020905b8154815260200190600101908083116101a8575b5050505050905090565b6000806000806000806000806101da610242565b925092509250600080600460056006925050915084848484849950995099509950995050505050509091929394565b60008060006001806002925092509250909192565b6000818154811061022e57600080fd5b906000526020600020016000915090505481565b60008060006001806002925092509250909192565b6000806000600192506001915060029050909192565b50565b600061028361027e84610514565b6104ef565b905080838252602082019050828560208602820111156102a257600080fd5b60005b858110156102d257816102b88882610306565b8452602084019350602083019250506001810190506102a5565b5050509392505050565b600082601f8301126102ed57600080fd5b81356102fd848260208601610270565b91505092915050565b60008135905061031581610600565b92915050565b60006020828403121561032d57600080fd5b600082013567ffffffffffffffff81111561034757600080fd5b610353848285016102dc565b91505092915050565b60006020828403121561036e57600080fd5b600061037c84828501610306565b91505092915050565b6000610391838361040a565b60208301905092915050565b60006103a882610550565b6103b28185610568565b93506103bd83610540565b8060005b838110156103ee5781516103d58882610385565b97506103e08361055b565b9250506001810190506103c1565b5085935050505092915050565b61040481610579565b82525050565b61041381610585565b82525050565b61042281610585565b82525050565b60006020820190508181036000830152610442818461039d565b905092915050565b600060208201905061045f6000830184610419565b92915050565b600060608201905061047a6000830186610419565b61048760208301856103fb565b6104946040830184610419565b949350505050565b600060a0820190506104b16000830188610419565b6104be60208301876103fb565b6104cb6040830186610419565b6104d86060830185610419565b6104e56080830184610419565b9695505050505050565b60006104f961050a565b9050610505828261058f565b919050565b6000604051905090565b600067ffffffffffffffff82111561052f5761052e6105c0565b5b602082029050602081019050919050565b6000819050602082019050919050565b600081519050919050565b6000602082019050919050565b600082825260208201905092915050565b60008115159050919050565b6000819050919050565b610598826105ef565b810181811067ffffffffffffffff821117156105b7576105b66105c0565b5b80604052505050565b7f4e487b7100000000000000000000000000000000000000000000000000000000600052604160045260246000fd5b6000601f19601f8301169050919050565b61060981610585565b811461061457600080fd5b5056fea264697066735822122055880f4786c2d9e80cf6bf70a0f22aec86b0f16524e04752248a2a6f89bfd0d664736f6c63430008040033",
  "linkReferences": {},
  "deployedLinkReferences": {}
}