{
  "_format": "hh-sol-artifact-1",
  "contractName": "Array",
  "sourceName": "contracts/Array.sol",
  "abi": [
    {
      "inputs": [
        {
          "internalType": "uint256",
          "name": "",
          "type": "uint256"
        }
      ],
      "name": "arr",
      "outputs": [
        {
          "internalType": "uint256",
          "name": "",
          "type": "uint256"
        }
      ],
      "stateMutability": "view",
      "type": "function"
    },
    {
      "inputs": [
        {
          "internalType": "uint256",
          "name": "",
          "type": "uint256"
        }
      ],
      "name": "arr2",
      "outputs": [
        {
          "internalType": "uint256",
          "name": "",
          "type": "uint256"
        }
      ],
      "stateMutability": "view",
      "type": "function"
    },
    {
      "inputs": [
        {
          "internalType": "uint256",
          "name": "i",
          "type": "uint256"
        }
      ],
      "name": "get",
      "outputs": [
        {
          "internalType": "uint256",
          "name": "",
          "type": "uint256"
        }
      ],
      "stateMutability": "view",
      "type": "function"
    },
    {
      "inputs": [],
      "name": "getArr",
      "outputs": [
        {
          "internalType": "uint256[]",
          "name": "",
          "type": "uint256[]"
        }
      ],
      "stateMutability": "view",
      "type": "function"
    },
    {
      "inputs": [],
      "name": "getLength",
      "outputs": [
        {
          "internalType": "uint256",
          "name": "",
          "type": "uint256"
        }
      ],
      "stateMutability": "view",
      "type": "function"
    },
    {
      "inputs": [
        {
          "internalType": "uint256",
          "name": "",
          "type": "uint256"
        }
      ],
      "name": "myFixedSizeArr",
      "outputs": [
        {
          "internalType": "uint256",
          "name": "",
          "type": "uint256"
        }
      ],
      "stateMutability": "view",
      "type": "function"
    },
    {
      "inputs": [],
      "name": "pop",
      "outputs": [],
      "stateMutability": "nonpayable",
      "type": "function"
    },
    {
      "inputs": [
        {
          "internalType": "uint256",
          "name": "i",
          "type": "uint256"
        }
      ],
      "name": "push",
      "outputs": [],
      "stateMutability": "nonpayable",
      "type": "function"
    },
    {
      "inputs": [
        {
          "internalType": "uint256",
          "name": "index",
          "type": "uint256"
        }
      ],
      "name": "remove",
      "outputs": [],
      "stateMutability": "nonpayable",
      "type": "function"
    },
    {
      "inputs": [
        {
          "internalType": "uint256",
          "name": "index",
          "type": "uint256"
        }
      ],
      "name": "removeCompact",
      "outputs": [],
      "stateMutability": "nonpayable",
      "type": "function"
    }
  ],
  "bytecode": "0x60806040526040518060600160405280600160ff168152602001600260ff168152602001600360ff16815250600190600361003b92919061004e565b5034801561004857600080fd5b506100bd565b82805482825590600052602060002090810192821561008f579160200282015b8281111561008e578251829060ff1690559160200191906001019061006e565b5b50905061009c91906100a0565b5090565b5b808211156100b95760008160009055506001016100a1565b5090565b6106c9806100cc6000396000f3fe608060405234801561001057600080fd5b506004361061009e5760003560e01c8063959ac48411610066578063959ac4841461016b578063a4ece52c14610187578063be1c766b14610191578063edf0099b146101af578063fb8cbced146101df5761009e565b806334745c3f146100a357806338a067ce146100bf5780634cc82215146100ef57806371e5ee5f1461010b5780639507d39a1461013b575b600080fd5b6100bd60048036038101906100b891906104dc565b6101fd565b005b6100d960048036038101906100d491906104dc565b6102ec565b6040516100e691906105bb565b60405180910390f35b610109600480360381019061010491906104dc565b610307565b005b610125600480360381019061012091906104dc565b610352565b60405161013291906105bb565b60405180910390f35b610155600480360381019061015091906104dc565b610376565b60405161016291906105bb565b60405180910390f35b610185600480360381019061018091906104dc565b6103c3565b005b61018f6103ef565b005b61019961043f565b6040516101a691906105bb565b60405180910390f35b6101c960048036038101906101c491906104dc565b61044b565b6040516101d691906105bb565b60405180910390f35b6101e761046f565b6040516101f49190610599565b60405180910390f35b60006001600080549050610211919061060f565b81548110610248577f4e487b7100000000000000000000000000000000000000000000000000000000600052603260045260246000fd5b90600052602060002001546000828154811061028d577f4e487b7100000000000000000000000000000000000000000000000000000000600052603260045260246000fd5b906000526020600020018190555060008054806102d3577f4e487b7100000000000000000000000000000000000000000000000000000000600052603160045260246000fd5b6001900381819060005260206000200160009055905550565b600281600a81106102fc57600080fd5b016000915090505481565b60008181548110610341577f4e487b7100000000000000000000000000000000000000000000000000000000600052603260045260246000fd5b906000526020600020016000905550565b6000818154811061036257600080fd5b906000526020600020016000915090505481565b60008082815481106103b1577f4e487b7100000000000000000000000000000000000000000000000000000000600052603260045260246000fd5b90600052602060002001549050919050565b600081908060018154018082558091505060019003906000526020600020016000909190919091505550565b6000805480610427577f4e487b7100000000000000000000000000000000000000000000000000000000600052603160045260246000fd5b60019003818190600052602060002001600090559055565b60008080549050905090565b6001818154811061045b57600080fd5b906000526020600020016000915090505481565b606060008054806020026020016040519081016040528092919081815260200182805480156104bd57602002820191906000526020600020905b8154815260200190600101908083116104a9575b5050505050905090565b6000813590506104d68161067c565b92915050565b6000602082840312156104ee57600080fd5b60006104fc848285016104c7565b91505092915050565b6000610511838361057b565b60208301905092915050565b6000610528826105e6565b61053281856105fe565b935061053d836105d6565b8060005b8381101561056e5781516105558882610505565b9750610560836105f1565b925050600181019050610541565b5085935050505092915050565b61058481610643565b82525050565b61059381610643565b82525050565b600060208201905081810360008301526105b3818461051d565b905092915050565b60006020820190506105d0600083018461058a565b92915050565b6000819050602082019050919050565b600081519050919050565b6000602082019050919050565b600082825260208201905092915050565b600061061a82610643565b915061062583610643565b9250828210156106385761063761064d565b5b828203905092915050565b6000819050919050565b7f4e487b7100000000000000000000000000000000000000000000000000000000600052601160045260246000fd5b61068581610643565b811461069057600080fd5b5056fea26469706673582212205732c5a506974694503894f5e6aca619e5f4ec214aaeb6a4ba712bbb7fb4fe2b64736f6c63430008040033",
  "linkReferences": {},
  "deployedLinkReferences": {}
}