{
  "contracts/Loop.sol": {
    "Loop": {
      "abi": [
        {
          "inputs": [],
          "name": "loop",
          "outputs": [],
          "stateMutability": "nonpayable",
          "type": "function"
        }
      ],
      "evm": {
        "bytecode": {
          "linkReferences": {},
          "object": "608060405234801561001057600080fd5b50610151806100206000396000f3fe608060405234801561001057600080fd5b506004361061002b5760003560e01c8063a92100cb14610030575b600080fd5b61003861003a565b005b60005b600a81101561007657600381141561005457610063565b600581141561006257610076565b5b808061006e906100a3565b91505061003d565b5060005b600a81101561009657808061008e906100a3565b91505061007a565b50565b6000819050919050565b60006100ae82610099565b91507fffffffffffffffffffffffffffffffffffffffffffffffffffffffffffffffff8214156100e1576100e06100ec565b5b600182019050919050565b7f4e487b7100000000000000000000000000000000000000000000000000000000600052601160045260246000fdfea2646970667358221220a8620e812129d91211e21097bd012db61689a8e7b5aea4662d01bc441da1c56c64736f6c63430008040033",
          "opcodes": "PUSH1 0x80 PUSH1 0x40 MSTORE CALLVALUE DUP1 ISZERO PUSH2 0x10 JUMPI PUSH1 0x0 DUP1 REVERT JUMPDEST POP PUSH2 0x151 DUP1 PUSH2 0x20 PUSH1 0x0 CODECOPY PUSH1 0x0 RETURN INVALID PUSH1 0x80 PUSH1 0x40 MSTORE CALLVALUE DUP1 ISZERO PUSH2 0x10 JUMPI PUSH1 0x0 DUP1 REVERT JUMPDEST POP PUSH1 0x4 CALLDATASIZE LT PUSH2 0x2B JUMPI PUSH1 0x0 CALLDATALOAD PUSH1 0xE0 SHR DUP1 PUSH4 0xA92100CB EQ PUSH2 0x30 JUMPI JUMPDEST PUSH1 0x0 DUP1 REVERT JUMPDEST PUSH2 0x38 PUSH2 0x3A JUMP JUMPDEST STOP JUMPDEST PUSH1 0x0 JUMPDEST PUSH1 0xA DUP2 LT ISZERO PUSH2 0x76 JUMPI PUSH1 0x3 DUP2 EQ ISZERO PUSH2 0x54 JUMPI PUSH2 0x63 JUMP JUMPDEST PUSH1 0x5 DUP2 EQ ISZERO PUSH2 0x62 JUMPI PUSH2 0x76 JUMP JUMPDEST JUMPDEST DUP1 DUP1 PUSH2 0x6E SWAP1 PUSH2 0xA3 JUMP JUMPDEST SWAP2 POP POP PUSH2 0x3D JUMP JUMPDEST POP PUSH1 0x0 JUMPDEST PUSH1 0xA DUP2 LT ISZERO PUSH2 0x96 JUMPI DUP1 DUP1 PUSH2 0x8E SWAP1 PUSH2 0xA3 JUMP JUMPDEST SWAP2 POP POP PUSH2 0x7A JUMP JUMPDEST POP JUMP JUMPDEST PUSH1 0x0 DUP2 SWAP1 POP SWAP2 SWAP1 POP JUMP JUMPDEST PUSH1 0x0 PUSH2 0xAE DUP3 PUSH2 0x99 JUMP JUMPDEST SWAP2 POP PUSH32 0xFFFFFFFFFFFFFFFFFFFFFFFFFFFFFFFFFFFFFFFFFFFFFFFFFFFFFFFFFFFFFFFF DUP3 EQ ISZERO PUSH2 0xE1 JUMPI PUSH2 0xE0 PUSH2 0xEC JUMP JUMPDEST JUMPDEST PUSH1 0x1 DUP3 ADD SWAP1 POP SWAP2 SWAP1 POP JUMP JUMPDEST PUSH32 0x4E487B7100000000000000000000000000000000000000000000000000000000 PUSH1 0x0 MSTORE PUSH1 0x11 PUSH1 0x4 MSTORE PUSH1 0x24 PUSH1 0x0 REVERT INVALID LOG2 PUSH5 0x6970667358 0x22 SLT KECCAK256 0xA8 PUSH3 0xE8121 0x29 0xD9 SLT GT 0xE2 LT SWAP8 0xBD ADD 0x2D 0xB6 AND DUP10 0xA8 0xE7 0xB5 0xAE LOG4 PUSH7 0x2D01BC441DA1C5 PUSH13 0x64736F6C634300080400330000 "
        },
        "methodIdentifiers": {
          "loop()": "a92100cb"
        }
      }
    }
  }
}