{
  "_format": "hh-sol-artifact-1",
  "contractName": "SendEther",
  "sourceName": "contracts/SendEther.sol",
  "abi": [
    {
      "inputs": [
        {
          "internalType": "address payable",
          "name": "_to",
          "type": "address"
        }
      ],
      "name": "sendViaCall",
      "outputs": [],
      "stateMutability": "payable",
      "type": "function"
    },
    {
      "inputs": [
        {
          "internalType": "address payable",
          "name": "_to",
          "type": "address"
        }
      ],
      "name": "sendViaSend",
      "outputs": [],
      "stateMutability": "payable",
      "type": "function"
    },
    {
      "inputs": [
        {
          "internalType": "address payable",
          "name": "_to",
          "type": "address"
        }
      ],
      "name": "sendViaTransfer",
      "outputs": [],
      "stateMutability": "payable",
      "type": "function"
    }
  ],
  "bytecode": "0x608060405234801561001057600080fd5b50610387806100206000396000f3fe6080604052600436106100345760003560e01c8063636e082b1461003957806374be480614610055578063830c29ae14610071575b600080fd5b610053600480360381019061004e919061021c565b61008d565b005b61006f600480360381019061006a919061021c565b6100d7565b005b61008b6004803603810190610086919061021c565b610154565b005b8073ffffffffffffffffffffffffffffffffffffffff166108fc349081150290604051600060405180830381858888f193505050501580156100d3573d6000803e3d6000fd5b5050565b60008173ffffffffffffffffffffffffffffffffffffffff166108fc349081150290604051600060405180830381858888f19350505050905080610150576040517f08c379a0000000000000000000000000000000000000000000000000000000008152600401610147906102a0565b60405180910390fd5b5050565b6000808273ffffffffffffffffffffffffffffffffffffffff163460405161017b9061028b565b60006040518083038185875af1925050503d80600081146101b8576040519150601f19603f3d011682016040523d82523d6000602084013e6101bd565b606091505b509150915081610202576040517f08c379a00000000000000000000000000000000000000000000000000000000081526004016101f9906102a0565b60405180910390fd5b505050565b6000813590506102168161033a565b92915050565b60006020828403121561022e57600080fd5b600061023c84828501610207565b91505092915050565b60006102526014836102cb565b915061025d8261030e565b602082019050919050565b60006102756000836102c0565b915061028082610337565b600082019050919050565b600061029682610268565b9150819050919050565b600060208201905081810360008301526102b981610245565b9050919050565b600081905092915050565b600082825260208201905092915050565b60006102e7826102ee565b9050919050565b600073ffffffffffffffffffffffffffffffffffffffff82169050919050565b7f4661696c656420746f2073656e64204574686572000000000000000000000000600082015250565b50565b610343816102dc565b811461034e57600080fd5b5056fea2646970667358221220596b7e7db3b745a05de96c804a801601469af8e8acb7bf6b24b625162798500764736f6c63430008040033",
  "linkReferences": {},
  "deployedLinkReferences": {}
}