{
  "_format": "hh-sol-artifact-1",
  "contractName": "ViewAndPure",
  "sourceName": "contracts/ViewAndPure.sol",
  "abi": [
    {
      "inputs": [
        {
          "internalType": "uint256",
          "name": "i",
          "type": "uint256"
        },
        {
          "internalType": "uint256",
          "name": "j",
          "type": "uint256"
        }
      ],
      "name": "add",
      "outputs": [
        {
          "internalType": "uint256",
          "name": "",
          "type": "uint256"
        }
      ],
      "stateMutability": "pure",
      "type": "function"
    },
    {
      "inputs": [
        {
          "internalType": "uint256",
          "name": "y",
          "type": "uint256"
        }
      ],
      "name": "addToX",
      "outputs": [
        {
          "internalType": "uint256",
          "name": "",
          "type": "uint256"
        }
      ],
      "stateMutability": "view",
      "type": "function"
    },
    {
      "inputs": [],
      "name": "x",
      "outputs": [
        {
          "internalType": "uint256",
          "name": "",
          "type": "uint256"
        }
      ],
      "stateMutability": "view",
      "type": "function"
    }
  ],
  "bytecode": "0x6080604052600160005534801561001557600080fd5b50610277806100256000396000f3fe608060405234801561001057600080fd5b50600436106100415760003560e01c80630c55699c146100465780635965da7714610064578063771602f714610094575b600080fd5b61004e6100c4565b60405161005b9190610180565b60405180910390f35b61007e6004803603810190610079919061010c565b6100ca565b60405161008b9190610180565b60405180910390f35b6100ae60048036038101906100a99190610135565b6100e1565b6040516100bb9190610180565b60405180910390f35b60005481565b6000816000546100da919061019b565b9050919050565b600081836100ef919061019b565b905092915050565b6000813590506101068161022a565b92915050565b60006020828403121561011e57600080fd5b600061012c848285016100f7565b91505092915050565b6000806040838503121561014857600080fd5b6000610156858286016100f7565b9250506020610167858286016100f7565b9150509250929050565b61017a816101f1565b82525050565b60006020820190506101956000830184610171565b92915050565b60006101a6826101f1565b91506101b1836101f1565b9250827fffffffffffffffffffffffffffffffffffffffffffffffffffffffffffffffff038211156101e6576101e56101fb565b5b828201905092915050565b6000819050919050565b7f4e487b7100000000000000000000000000000000000000000000000000000000600052601160045260246000fd5b610233816101f1565b811461023e57600080fd5b5056fea2646970667358221220feca5890b8bed4acb2e002693f1763bc2e6d6f2785be66f6026dc1de922bb2f564736f6c63430008040033",
  "linkReferences": {},
  "deployedLinkReferences": {}
}